:020000040800F2
:10000000003F00200D020008A71B0008691B000824
:10001000A51B0008950900087123000800000000D6
:10002000000000000000000000000000CB1B0008E2
:10003000890B000800000000A91B0008CD1B000868
:1000400027020008270200082702000827020008EC
:1000500027020008270200082702000827020008DC
:1000600027020008270200082702000827020008CC
:1000700027020008270200082702000827020008BC
:1000800027020008270200082702000827020008AC
:10009000270200082702000827020008270200089C
:1000A000270200082702000827020008270200088C
:1000B000270200082702000827020008270200087C
:1000C000270200082702000827020008270200086C
:1000D000270200084523000827020008270200081D
:1000E000270200082702000827020008270200084C
:1000F000270200082702000827020008270200083C
:10010000270200082702000827020008270200082B
:10011000270200082702000827020008270200081B
:10012000270200082702000827020008270200080B
:1001300027020008270200082702000827020008FB
:1001400027020008270200082702000827020008EB
:1001500027020008270200082702000827020008DB
:1001600027020008270200082702000827020008CB
:1001700027020008270200082702000800000000EC
:1001800027020008270200082702000827020008AB
:10019000270200082702000827020008270200089B
:1001A000270200082702000827020008270200088B
:1001B000270200082702000827020008270200087B
:1001C000270200082702000800000000270200089C
:1001D000270200082702000827020008270200085B
:1001E000270200082702000827020008270200084B
:1001F0002702000827020008DFF80CD000F06EFA92
:1002000000480047054E0008003F00200648804790
:1002100006480047FEE7FEE7FEE7FEE7FEE7FEE7EB
:10022000FEE7FEE7FEE7FEE7711C0008F9010008A3
:100230002DE9F05F0546002092469B46884606461B
:10024000814640241BE0284641464746224600F0AE
:100250007DF853465A46C01A914110D311461846AC
:10026000224600F064F82D1A67EB01084F4622463B
:100270000120002100F05BF817EB00094E41201E21
:10028000A4F10104DFDC484631462A464346BDE876
:10029000F09F40EA01039B0703D009E008C9121F41
:1002A00008C0042AFAD203E011F8013B00F8013B30
:1002B000521EF9D27047D2B201E000F8012B491E5C
:1002C000FBD270470022F6E710B513460A460446F3
:1002D0001946FFF7F0FF204610BD421C10F8011B25
:1002E0000029FBD1801A704730B504460020034630
:1002F00000E05B1C934203D2E05CCD5C401BF8D075
:1003000030BD30B50B46014600202022012409E013
:1003100021FA02F59D4205D303FA02F5491B04FABE
:1003200002F52844151EA2F10102F1DC30BD202A9D
:1003300004DB203A00FA02F1002070479140C2F13C
:10034000200320FA03F3194390407047202A04DB6E
:10035000203A21FA02F00021704721FA02F3D0403E
:10036000C2F1200291400843194670472DE9FE4F23
:10037000804681EA0300C00F0C46009021F0004146
:1003800023F00045B8EB0200A94105D240462146C2
:1003900090461C460B46024623F00040104347D0CF
:1003A000270DC7F30A00C3F30A510290401A0190C7
:1003B00040286BDAC3F3130040F4801B0098924688
:1003C00020B10023D2EB030A63EB0B0B01985946D3
:1003D000C0F140025046FFF7AAFF06460D465046C0
:1003E0005946019A00F08CF910EB08006141002495
:1003F00087EA115284EAE7731A4340D0009A62B345
:10040000019A012A4FEA075215DC001B61EB020139
:100410004FF0004202EA0752CDE90042001C41F5CC
:10042000801132462B4600F08CF903B0BDE8F08F06
:1004300040462146F9E7001B61EB0201001C41F533
:10044000801300185B412018A2F5001747EB030149
:1004500040EAD570B6196D4111E06D084FEA3606D5
:1004600045EAC0754FEA0752001B61EB0201001C10
:1004700041F5801149084FEA3000001951413246D8
:100480002B4603B0BDE8F04F00F04CB900980122B4
:1004900040000023D0EB020263EBE073009821469A
:1004A0004FEAE074B8EB000061EB0401E9E783F088
:1004B00000435BE781F0004158E72DE9FE4F81EAF8
:1004C000030404F0004421F0004100944FF0000BBD
:1004D00023F0004350EA01045ED052EA03045BD0EB
:1004E000C3F30A54C1F30A552C44A4F2F334019423
:1004F000A0FB0254C1F3130141F48011C3F31303B1
:1005000043F4801301FB024400FB034E840A970A64
:1005100044EA815447EA8357A4FB076802958D0A91
:1005200005FB07854FEA932C04FB0C542705029D1D
:100530004FEA065847EA1637B5EB08056EEB070C8D
:10054000870E920E47EA811742EA8312A7FB020147
:10055000B6EB0B0164EB00042B0D43EA0C335E1881
:1005600044EB1C50DA465146E7FB0201C5F3130485
:100570004FEA0B3343EA14534FEA0432019C43EA37
:100580000603A4F10C040294009CCDE900B400F031
:10059000D8F803B0BDE8F08F00200146F9E72DE957
:1005A000F04D81EA030404F0004B21F000451446AD
:1005B0004FF0000A23F0004150EA050220D054EA2F
:1005C00001021DD0C5F30A570246C5F31303C1F358
:1005D0001300C1F30A5640F4801543F48013A7EBCF
:1005E0000608101BD64608F2FD3873EB050002D34F
:1005F00008F1010801E092185B41B8F1000F03DA3D
:1006000000200146BDE8F08D00204FF48011064621
:1006100084460EE0171B73EB050705D3121B63EB33
:10062000050306434CEA010C49084FEA30009218D2
:100630005B4150EA0107EDD152EA030012D082EA91
:10064000040083EA0501084305D0101BAB4106D224
:100650000122002306E000224FF0004302E06FF089
:10066000010253101AEB06004CEB085110EB0A0084
:1006700041EB0B01BDE8F04D00F054B8C1F30A5254
:10068000C1F3130140F2FF3341F480119A4202DAC0
:1006900000200146704740F233439A42A2F23342AF
:1006A00002DC5242FFF752BEFFF741BE30B5041ED6
:1006B00071F1000404DB4FF00044404264EB01019F
:1006C000141E73F1000405DB1C464FF00043524238
:1006D00063EB0403994208BF904230BD064C074DBE
:1006E00006E0E06840F0010394E807009847103402
:1006F000AC42F6D3FFF784FD8CE90008ACE90008B2
:10070000202A06DBCB17203A41FA02F043EAE073D5
:1007100006E041FA02F3D040C2F1200291400843C2
:100720001946704710B5141E73F1000408DA401C16
:1007300041F1000192185B411A4301D120F0010000
:1007400010BD2DE9F04D92469B4611B1B1FA81F2F0
:1007500002E0B0FA80F220329046FFF7E8FD04464E
:100760000F4640EA0A0041EA0B0153465A46084345
:1007700013D0114653EA010019D0C8F14002504687
:10078000FFF7E4FD05460E46504659464246FFF740
:10079000CEFD084305D0012004E020463946BDE8DF
:1007A000F08D0020054346EAE0762C4337430A9853
:1007B0006305E40AA0EB08000022FD0A44EA47545E
:1007C0000A3002D500200146E9E701051019694108
:1007D000DDE9084500196941BDE8F04DA2E770B5B3
:1007E0008C1810F8015B15F0070301D110F8013BDC
:1007F0002A1106D110F8012B03E010F8016B01F863
:10080000016B5B1EF9D12B0705D40023521E0DD4BA
:1008100001F8013BFAE710F8013BCB1A921C03E008
:1008200013F8015B01F8015B521EF9D5A142D8D340
:10083000002070BD38B50F4800226946006800905E
:100840000D4803F043FC10F0FF0F06D0020AC1B2BE
:100850000AA001F08FFD72B6FEE7074C0021241FAD
:10086000606803F0A3FCA0600021606803F0A8FCAE
:10087000E06038BD4C5100080400002061695F6EE3
:100880006574776F726B5F63726561746520657202
:10089000726F72202D20747970653D256420636F1E
:1008A00064653D25640D0A00F0B5234C0B46002518
:1008B0002DED028B9BB0A1689FED208A4860E26815
:1008C0005360606803F086FC012809D0606803F07B
:1008D00053FC020AC1B21AA001F04CFD72B6FEE749
:1008E000224E002422A1224606EB840702A897ED9F
:1008F000000AB7EEC00A8DED000B01F04BFD02A817
:1009000001F026FD97ED000AB4EEC80AF1EE10FAE8
:1009100002DDB0EE408A2546641C0A2CE2D317A102
:100920002A4602A801F036FD02A801F011FD1BB015
:10093000BDEC028BF0BD00000000002000000000B4
:1009400041492061695F6E6574776F726B5F727584
:100950006E206572726F72202D20747970653D254E
:100960006420636F64653D25640D0A004C1300200C
:100970002564202025382E36660D0A0063757272B4
:10098000656E74206E756D626572206973202564D2
:100990000D0A0000FEE700002DE9F041002402F0FE
:1009A00038F9050013D03648006840F25146721CF1
:1009B0000021C0F30A000123A0F58067493F04D05D
:1009C000B04207D141F0010108E0194606E0204697
:1009D000BDE8F081904201D1012000E000200143F8
:1009E00028494FF0180008D088608868182843D13B
:1009F0008B6088680028FCD13DE0234E4FF00A4709
:100A0000224AD6F800C0B7EB4C5F08D110601068DE
:100A1000182831D1136010680028FCD12BE0D6F8DB
:100A200000C0CCF30A0CACF58067833F0AD037686E
:100A30004FF01042B2EB475F12D1886088681828E7
:100A400009D019E010601068182815D113601068DB
:100A50000028FCD10FE08B6088680028FCD10AE0F8
:100A60003268520508D188608868182804D18B60E4
:100A700088680028FCD10124284602F03DF9A6E749
:100A8000002004E0003002400010005C084C0258D6
:100A90002DE9F04102F0BDF835490B6840F25145AF
:100AA0006C1C0021C3F30A030122A3F58066493EB2
:100AB00004D0AB4204D141F0010105E0114603E04E
:100AC000A34201D1012300E000232A4D2A4E1943FD
:100AD0002A4908D08A608A68002AFCD10D6009681A
:100AE000B14241D0FEE7264C4FF00A4C254BD4F8DA
:100AF00000E0244F0837BCEB4E5F08D13A603968FC
:100B00000029FCD11D601968B1422DD0FEE7D4F850
:100B100000E0CEF30A0EAEF5806CBCF1830C0ED073
:100B200027684FF01043B3EB475F11D18A608A68A2
:100B3000002AFCD10D600968B14215D0FEE73A6089
:100B400039680029FCD11D601968B1420CD0FEE75C
:100B500023685B0508D18A608A68002AFCD10D6091
:100B60000968B14200D0FEE702F0C6F8BDE8F081A6
:100B7000002004E0C2A507F4CDB5E8B5003002407E
:100B80000010005C004C02587047F0B50446C807DE
:100B90004FF0000010D01E23012603F01F0706FAB5
:100BA00007F50D4201D15B1EF7D27AB1082A0BD0AE
:100BB000102A06D0182A01D00120F0BD072BFBD245
:100BC00004E0082BF8D201E0102BF5D2236859611C
:100BD00021688B6823F0180313438B60F0BD00007D
:100BE00010B5040010D0607F20B900202077204687
:100BF00000F032F821790220607739B1D4E902128D
:100C00002046FFF7C2FF48B1012010BD21681148FE
:100C100048612068816821F0180181606079A0B185
:100C2000216820690861012220686369816821F0D8
:100C30006001194381602068A369816821F0800107
:100C4000194381606277002010BD21684FF0FF30AA
:100C5000E8E70000B71DC10408B5006806498842EE
:100C600008D10648016841F480510160006800F431
:100C70008050009008BD0000003002403038024033
:100C80002DE9F041876D044600F07AF9064694F8A4
:100C900035000025022806D080206065012084F8F8
:100CA0003450BDE8F0812068016821F01601016030
:100CB0002068416921F080014161206C08B9A06C75
:100CC00020B12068016821F00801016020680168F6
:100CD00021F0010101600CE000F052F9801B0528B1
:100CE00007D920216165032084F8350084F8345049
:100CF000D7E720680068C007EED194F85C203F2059
:100D000001219040B86084F83510002084F83450F8
:100D1000C7E790F83510022903D0802141650120F2
:100D20007047052180F835100068016821F0010145
:100D300001600020704700002DE9F84FDFF80CB289
:100D4000012403254FF00F0A00220BF1040E00BF0F
:100D50000B6804FA02F63340B34278D10F7907F0FA
:100D60000307012F01D0022F1AD187684FEA4209E9
:100D7000D1F80CC005FA09F827EA08070CFA09FCB3
:100D80004CEA070CC0F808C0476891F804C0B743A4
:100D9000CCF3001C0CFA02FC4CEA070CC0F804C0AF
:100DA0000E79F643B6070BD0C6684FEA420C8F683F
:100DB00005FA0CF826EA080607FA0CF73743C7606D
:100DC0000E7906F00306022E12D1D6084FEA4278B9
:100DD00000EB860600960F69D6F820904FEAD86699
:100DE0000AFA06FCB74029EA0C063743009E376230
:100DF0000F7906684FEA420C07F0030705FA0CF872
:100E000007FA0CF726EA0806374307604E6816F41F
:100E1000403F1CD04E4E376847F4804737603668F5
:100E200022F00308970706F480460096494E3F0FCC
:100E30004644B146D6F80868DFF81C810AFA07FC78
:100E4000404526EA0C0603D14FF0000C41E076E065
:100E5000DFF808C1604502D14FF0010C39E0DFF83E
:100E600000C1604502D14FF0020C32E0DFF8F4C05F
:100E7000604502D14FF0030C2BE0DFF8ECC0604579
:100E800002D14FF0040C24E0DFF8E0C0604502D14D
:100E90004FF0050C1DE0DFF8D8C0604502D14FF0DF
:100EA000060C16E0DFF8CCC0604502D14FF0070C0D
:100EB0000FE0DFF8C4C0604502D14FF0080C08E035
:100EC000DFF8B8C0604502D14FF0090C01E04FF0E7
:100ED0000A0C0CFA07FC4CEA060CC9F808C84F6863
:100EE000DBF80060FF0226EA030600D51E437746C2
:100EF000CBF80060D1F804C0DEF800605FEA8C2C0B
:100F000026EA030600D51E43DFF840C03E60ACF180
:100F1000040C4F68DCF80060BF0326EA030600D526
:100F20001E430A4FCCF80060083FD1F804C03E6869
:100F30005FEACC3C26EA030600D51E433E60521C05
:100F4000102AFFF405AFBDE8F88F0000083C01400F
:100F500044380240003001400000024000040240DA
:100F600000080240000C0240001002400014024041
:100F700000180240001C02400020024000240240F1
:100F80000148806870470000100000200248816816
:100F9000027811448160704710000020032010B5D2
:100FA00000F06EF80F2000F005F800F023F80020A4
:100FB00010BD000070B50D4D04464FF47A700C4A18
:100FC00029781268B0FBF1F0B2FBF0F000F054FBAE
:100FD00048B9102C07D200222146501E00F030F8EC
:100FE00000206C6070BD012070BD0000100000206A
:100FF0001C0000200A4808B5016841F080510160DA
:10100000006800F0805000900548001D016841F420
:1010100080410160006800F48040009008BD00003D
:1010200040380240002809DB410900F01F02890016
:10103000012001F1E0219040C1F80001704700005B
:101040000E4BF0B41B680D46C3F30223C3F1070631
:10105000042E00D90426191D072901D2002300E01F
:10106000DB1E012404FA06F19C40491E2940641E3F
:10107000994014402143F0BC01F0B3B90CED00E0FD
:10108000064900F0070210B54FF6FF040868044B4C
:10109000204040EA02201843086010BD0CED00E03B
:1010A0000000FA051848F8B5016841F08051016068
:1010B0000068164C00F080500090206840F48030AA
:1010C0002060FFF75DFF4FF47A76054605E000BF2C
:1010D000FFF756FF401BB0420FD86068C003F7D53A
:1010E000206840F400302060FFF74AFF054606E024
:1010F000FFF746FF401BB04201D90320F8BD6068EE
:101100008003F5D50020F8BD403802400070004053
:101110002DE9F04705000F4663D0444E306800F0DB
:101120000F00B84209D2306820F00F003843306019
:10113000306800F00F00B84253D128683C4C81075A
:1011400012D5400703D5206840F4E050206028788D
:10115000000703D5206840F460402060A96820683B
:1011600020F0F000084320602878C0072AD03049DA
:1011700068680839012810D00968022810D089074A
:1011800000292EDA216821F0030101432160FFF7D5
:10119000F7FE804641F288390DE009688903EFE7E0
:1011A0008901EDE7FFF7ECFEA0EB0801494502D904
:1011B0000320BDE8F0876868216801F00C01B1EBFD
:1011C000800FEFD1306800F00F00B8420BD93068C3
:1011D00020F00F0038433060306800F00F00B84254
:1011E00001D00120E5E72878400705D5E9682068A7
:1011F00020F4E050084320602878000706D52869CD
:10120000216821F4604141EAC000206000F038F814
:101210002168084AC1F30311515CC84006490860BF
:1012200006480068FFF7C6FE0020C2E7003C024007
:1012300008380240505100081C0000201400002013
:101240000449054809680068044AC1F38221515CD9
:10125000C8407047083802401C0000206051000858
:101260000449054809680068044AC1F34231515CE9
:10127000C8407047083802401C0000206051000838
:10128000154910B51548096811F00C0213D041102A
:10129000042A0FD0082A0ED10F4C241F226823687D
:1012A00002F03F025B0207D52068C0F38810A0FB64
:1012B000010106E0084610BD2168C1F38811A1FBB9
:1012C00000010023FEF7B4FF2168C1F30141491C6E
:1012D0004900B0FBF1F010BD083802400024F400D2
:1012E0002DE9F84F04004FF000076ED02078DFF8AA
:1012F0007CA3AAF10408C007A8F104054CD0DAF8D1
:1013000000105046C1F38101012908D00068C0F3E4
:10131000810002280AD1D8F80000400206D52868CA
:10132000800339D560680028DFD035E06068B0F50B
:10133000803F0BD010B1B0F5A02F11D0286820F459
:1013400080302860286820F4802002E0286840F47B
:1013500080302860606890B1FFF712FE06460AE010
:10136000286840F480202860F0E700BFFFF708FEFF
:10137000801B642872D828688003F7D50CE0FFF73B
:10138000FFFD064605E000BFFFF7FAFD801B64285D
:10139000F0D828688003F7D42078800742D5DAF89F
:1013A0000010504611F00C0F08D00068C0F3810007
:1013B00002280BD1D8F80000400207D42868800723
:1013C00018D5E068012800D114E04AE1E06800285F
:1013D000286817D040F001002860FFF7D1FD0646CD
:1013E00005E000BFFFF7CCFD801B0228C2D82868AB
:1013F0008007F7D52069296821F0F80141EAC0008B
:1014000028600FE020F001002860FFF7B9FD0646D4
:1014100005E000BFFFF7B4FD801B02281ED8286836
:101420008007F7D42078000729D5904861696C308F
:1014300000298146016812D041F001010160FFF7E7
:101440009FFD064605E000BFFFF79AFD801B0228BE
:1014500004D8D9F800008007F6D510E089E021F023
:1014600001010160FFF78CFD064604E0FFF788FDEF
:10147000801B02287DD8D9F800008007F6D4207898
:1014800040076BD5DFF8E49109F13809D9F800007D
:10149000C0000BD4D9F8001041F08051C9F80010F9
:1014A000D9F80000012700F08050009070480168D2
:1014B000C90512D40168834641F480710160FFF7C9
:1014C0005FFD064605E000BFFFF75AFD801B64285C
:1014D0004FD8DBF80000C005F6D5644EA06868362A
:1014E00001280AD008B1052811D0306820F0010089
:1014F0003060306820F0040002E0306840F0010005
:101500003060A068A0B1FFF73BFD83460CE0306877
:1015100040F004003060F0E7FFF732FDA0EB0B0174
:1015200041F28830814268D830688007F4D50EE0F7
:10153000FFF726FD834607E0FFF722FDA0EB0B0136
:1015400041F28830814258D830688007F4D42FB1F6
:10155000D9F8001021F08051C9F80010A069E0B35B
:10156000DAF80010C1F3810102294DD00228286861
:1015700000E042E020F08070286003D0FFF700FD1B
:1015800004463DE0FFF7FCFC064604E0FFF7F8FCEC
:10159000801B022831D828688001F7D4D4E90921BA
:1015A000DFF8D0C0D4E9070694F830304F0894F83B
:1015B0002C1030430CEB074444EA8212104340EAFB
:1015C000016040EA0370C8F80000286840F08070AD
:1015D0002860FFF7D5FC044605E044E0FFF7D0FCA7
:1015E000001B022809D828688001F7D53BE000BF1E
:1015F000FFF7C6FC001B022802D90320BDE8F88FC4
:1016000028688001F4D42EE00128D8F8000028D002
:10161000E16900F480028A4223D1216A00F03F028E
:101620008A421ED1626A47F6C0710140B1EB821F47
:1016300017D1A16A4FF0FF3200F4403302EB5101A1
:10164000B3EB014F0DD194F82C1000F07062B2EBA7
:10165000016F06D194F8301000F0E040B0EB017F4C
:1016600001D00120CAE70020C8E700000838024086
:10167000007000400000FFFF401EB0F1807F10B5F9
:1016800001D3012010BD4FF0E02460610F216017ED
:1016900000F0A7FE0020A0610721216110BD704766
:1016A000704770472DE9F04102680025044640F676
:1016B0000F070226D06911689368384205D1870662
:1016C0007ED58F067CD5A16E33E1DFF894C203F09E
:1016D000010701EA0C0C57EA0C0C71D05FEAC07CE0
:1016E0000CD05FEAC15C09D54FF0010CC2F820C0F4
:1016F000D4F8842042F00102C4F88420820709D57E
:10170000DA0707D022681662D4F8842042F0040277
:10171000C4F8842042070AD5DA0708D023680422D7
:101720001A62D4F8842042F00202C4F8842002072E
:101730000CD501F020023A4308D0236808221A622F
:10174000D4F8842042F00802C4F8842002050BD5A6
:101750004A0109D523684FF400621A62D4F8842044
:1017600042F02002C4F88420D4F88420002A36D025
:10177000800605D5880603D5A16E09B120468847A5
:101780002168D4F884008968490602D410F0280F33
:1017900027D0204600F033FB2068806840061BD528
:1017A0002068083050E8001F21F0400140E8001296
:1017B000002AF5D1606F78B16A490165606F00E079
:1017C00015E0FFF7A6FA002809D0606F016D00E070
:1017D0002046BDE8F04108472046FFF762FFBDE81C
:1017E000F0812046FFF75DFFC4F88450F7E7D4F896
:1017F00060C02027BCF1010F7ED15FEAC06C7BD5B1
:101800005FEAC16C78D510201062206880684006BD
:101810004FD5626FFB00106840680004000C3CD09C
:10182000B4F85810814238D9A4F85A00D0699842C7
:101830002BD0206850E8001F21F4807140E800128E
:10184000002AF6D12068083050E8001F21F001017D
:1018500040E80012002AF5D12068083050E8001F47
:1018600021F0400140E80012002AF5D1C4F8807050
:101870002566216851E8000F20F0100041E80002C1
:10188000002AF6D1606FFFF7FBF96666B4F85800DE
:10189000B4F85A10401A81B207E0B4F858108142E7
:1018A0009DD1D06998429AD166662046FFF7F7FE2F
:1018B00095E7B4F85800B4F85A10B4F85A20401A12
:1018C00081B2002A8BD0002989D0226852E8000F0B
:1018D00020F4907042E80003002BF6D1206800F15C
:1018E000080050E8002F22F0010240E80023002BFE
:1018F000F4D1C4F8807000E00BE02566A56620688E
:1019000050E8002F22F0100240E80023002BF6D10F
:10191000CAE7C60208D55B0206D54FF480101062F4
:101920002046FFF7BDFE5AE7020606D50A0604D593
:10193000E16E00297FF44CAF51E74006B8D5480668
:10194000B6D52046026852E8001F21F0400142E867
:101950000013002BF6D1C767C56600F004F93EE717
:1019600020010004EF1D000810B5040002D0E06F54
:1019700010B107E0012010BD002084F87800204657
:1019800000F026F82420E0672068016821F00101BA
:101990000160606A10B1204600F072F9204600F044
:1019A00013FB0128E7D02068416821F49041416091
:1019B0002068816821F02A0181602068016841F077
:1019C000010101602046BDE8104000F0BDB90000F3
:1019D00010B586B0044614216846FEF773FC16491C
:1019E0002068884226D11548016841F00101016054
:1019F000006800F00100059010481430016841F0C3
:101A00001001016000680221072400F01000059019
:101A1000032300224FF4C0608DE81F000848694688
:101A2000FFF78AF9032225201146FFF709FB25203D
:101A3000FFF7F8FA06B010BD001001403038024040
:101A40000000024030B4D0F88030202B02D00220B9
:101A500030BC704791B18AB10023036603685B68AC
:101A60001B0208D5046854E8003F43F0806344E853
:101A70000035002DF6D130BC00F0BEBB0120E7E7F9
:101A80000C4930B4487878B94888B0F5806F09D2ED
:101A9000094C421C0B780A2B23544A8004D10120A4
:101AA000487001E00020488030BC02490122034810
:101AB000FFF7C8BF00000020741300208406002038
:101AC0002DE9F8430446C06F984616460D46202877
:101AD00002D00220BDE8F88395B18EB10021C4F890
:101AE00084102120E067FFF74BFA8146A068A4F834
:101AF0005060A4F852602027B0F5805F02D003E068
:101B00000120E7E7206910B12E46002510E00026ED
:101B10000EE08021204600F0CBFBC0B9D6B116F80C
:101B2000010B21688862B4F85200401EA4F85200EC
:101B3000B4F852004B464FF00002CDF80080002868
:101B4000E7D14FF04001204600F0B2FB40B1E7671B
:101B50000320BFE735F8020B2168C0F30800E1E776
:101B6000E7670020B6E77047FEE700000C48002159
:101B700010B50A4C0C224FF4E1330460C0E9013186
:101B8000C160C0E904128161C16101624162FFF775
:101B9000EBFE002801D072B6FEE710BD0010014038
:101BA00084060020FEE7FEE7704730B5002309E019
:101BB000C45C01EB83055B1C00EE104AB8EE400AE2
:101BC00085ED000A9342F3DB30BD7047FFF7DEB9C5
:101BD00030B593B034216846FEF774FB14210DA88C
:101BE000FEF770FB2048016841F0805101600068F9
:101BF00000F0805012901D48016841F4404101609E
:101C0000006800250DF1200C022400940822D8233E
:101C1000CDE9064500F44040129010218CE81C00EC
:101C200001200B94CDE903016846FFF759FB08B189
:101C300072B6FEE7FFF736FA08B172B6FEE74FF468
:101C400080524FF4A0510F20CDE910120DAA0721A8
:101C500082E831000DA8FFF75BFA002801D072B6C8
:101C6000FEE713B030BD0000403802400070004075
:101C70000248016841F470010160704788ED00E09E
:101C800090F82410090706D50168436B4A6822F4CE
:101C900000421A434A6090F82410C90706D0016830
:101CA000836A4A6822F400321A434A6090F824108A
:101CB000890706D50168C36A4A6822F480321A434C
:101CC0004A6090F82410490706D50168036B4A68FA
:101CD00022F480221A434A6090F82410C90606D5DF
:101CE0000168836B8A6822F480521A438A6090F8F4
:101CF0002410890606D50168C36B8A6822F4005255
:101D00001A438A6090F82410490611D50168036CC3
:101D10004A6822F480121A434A60016CB1F5801FB0
:101D200006D10168436C4A6822F4C0021A434A6033
:101D300090F82410090606D50168826C486820F4E2
:101D400000201043486070472DE9F8430025044601
:101D5000C0F88450FFF714F98046206820266FF001
:101D60007E470068000712D5002243463104204612
:101D7000009700F09DFA50B1216851E8000F20F063
:101D8000800041E80002002AF6D1E66721E02068E1
:101D90000068400722D5002243464FF480012046C8
:101DA000009700F085FAC8B1206850E8001F21F4C0
:101DB000907140E80012002AF6D12068083050E8FF
:101DC000001F21F0010140E80012002AF5D1C4F8FB
:101DD0008060032084F87850BDE8F883E667C4F893
:101DE000806025666566002084F87850F4E710B5B9
:101DF000806B0021A0F85A10FFF753FC10BD01685A
:101E000051E8002F22F4907241E80023002BF6D114
:101E10000168083151E8002F22F0010241E8002357
:101E2000002BF5D1016E012908D1026852E8001F8C
:101E300021F0100142E80013002BF6D100212022EE
:101E4000C0F8802001668166704710B5D0F8801018
:101E5000B0F85C202229016804D0886940F00800AD
:101E6000886110BD496A436D11401980416D891C1C
:101E70004165B0F85A10491EA0F85A10B0F85A102F
:101E80000029EED1026852E8001F21F4907142E867
:101E90000013002BF6D10168083151E8002F22F021
:101EA000010241E80023002BF5D100212022C0F8D7
:101EB00080208166416602685268120208D5036874
:101EC00053E8002F22F0806243E80024002CF6D172
:101ED000026E012A02D0FFF7D3FD10BD0166026831
:101EE00052E8001F21F0100142E80013002BF6D148
:101EF0000168CA69D243D20601D410220A62B0F83E
:101F00005810FFF7CCFB10BD10B5D0F88010B0F81A
:101F10005C202229016804D0886940F008008861AB
:101F200010BD496A436D11401970416D491C4165EE
:101F3000B0F85A10491EA0F85A10B0F85A100029EB
:101F4000EED1026852E8001F21F4907142E80013BC
:101F5000002BF6D10168083151E8002F22F0010270
:101F600041E80023002BF5D100212022C0F8802079
:101F70008166416602685268120208D5036853E818
:101F8000002F22F0806243E80024002CF6D1026E7C
:101F9000012A02D0FFF774FD10BD0166026852E805
:101FA000001F21F0100142E80013002BF6D1016858
:101FB000CA69D243D20601D410220A62B0F858107E
:101FC000FFF76DFB10BD00002DE9F04104460368EA
:101FD000C2698168D4E90450DFF8F0C17C4E29431E
:101FE0001F68002510437B4A014307EA0C070F4393
:101FF0001F604FF400402168E7684B6823F44053AA
:102000003B434B602768A369216AD7F808C019438E
:102010002CF430630B43BB602168B1420AD11168D4
:1020200011F0030152D001297CD0022971D003297B
:102030006ED184E0684B99420AD1116811F00C010D
:1020400067D0042965D0082975D00C2960D176E0C5
:10205000624B99420AD1116811F0300159D0102910
:102060006BD0202967D0302952D168E05C4B99426F
:102070000AD1116811F0C0014BD040295DD08029F0
:1020800059D0C02944D15AE0564B99420DD111681C
:1020900011F440713DD0B1F5807F4ED0B1F5007F95
:1020A00049D0B1F5407F33D149E04F4B99420FD130
:1020B000116811F4406109D0B1F5806F3DD0B1F5E0
:1020C000006F38D0B1F5406F22D138E0012120E017
:1020D000464B99420DD1116811F4405119D0B1F518
:1020E000805F2AD0B1F5005F25D0B1F5405F0FD1F8
:1020F00025E03F4B99420BD1116811F4404108D0C3
:10210000B1F5804F19D0814215D0B1F5404F16D0AE
:102110001021E369374A4FF6EF7683422ED1092921
:1021200049D201E009E006E0DFE801F00B0E1145BD
:102130001345454516000221EBE70421E9E7082194
:10214000E7E7FFF77DF806E0FFF78AF803E01046BF
:1021500002E0FFF795F878B36168400000EB5100AA
:10216000B0FBF1F0A0F11001B14224D84FF6F073AA
:102170002168C0F342021840104320E009291AD216
:10218000DFE801F005080B190D1919191000FFF708
:1021900057F806E0FFF764F803E0104602E0FFF7A7
:1021A0006FF848B1616800EB5100B0FBF1F0A0F1AD
:1021B0001001B14201D9012502E0216880B2C86056
:1021C0000020A066E0662846BDE8F081F369FFEFD5
:1021D0000010014090380240004400400048004098
:1021E000004C0040005000400014014000780040C6
:1021F000007C00400024F40030B583680024416571
:102200004FF48055A0F85820AB42A0F85A204FF068
:10221000FF01846604D1026972BB40F2FF112BE01A
:102220004FF07F0233B3B3F1805F28D0A0F85C4059
:102230002221C0F88440C0F880100168083151E8BC
:10224000002F42F0010241E80023002BF5D1816804
:10225000A94201D10169C9B1134902698166BAB1C4
:10226000016851E8002F42F4907241E80023002BEE
:10227000F6D116E0036933B9A0F85C10D8E701691C
:1022800009B13F21F8E7A0F85C20D1E70749816652
:10229000026852E8001F41F0200142E80013002BC1
:1022A000F6D1002030BD0000091F00084B1E0008B9
:1022B0002DE9F047994617460D460446089E4FF013
:1022C000000833E0701C31D0FEF75AFEA0EB090085
:1022D000B04218D8BEB120680168490726D5802DC4
:1022E00024D0402D22D0C169C94309070DD4082547
:1022F00005622046FFF783FDC4F88450012084F86E
:102300007880BDE8F0870320FBE7C069C043000583
:102310000CD421684FF4006008622046FFF76FFD7F
:102320002021C4F8841084F87880ECE72068C06924
:1023300035EA000004D00020B842C3D00020E0E716
:102340000120F9E70148FFF7ADB90000840600203D
:1023500010B50446FDF7C1FF21464FF6FF73BDE8F7
:10236000104082B20148FFF7ABBB0000840600209A
:10237000FEE700000FB4054B10B503A9044A02980C
:1023800001F080F910BC5DF814FB0000794D0008E5
:10239000500600200FB4084B10B504A902AA0398F8
:1023A00001F070F9044602A9002001F002FD204668
:1023B00010BC5DF814FB0000B33D000841000802AA
:1023C00018BF04200A0E18BF40F001004FF07F42F2
:1023D00032EA010108BF40F00200012808BF0520D1
:1023E0007047090700284FEA116104DB00F1E02083
:1023F00080F80014704700F00F0000F1E02080F832
:10240000141D70479FED3C0A63E000BF92ED003A57
:1024100091ED004AD2ED012AD1ED013A04EE030A12
:1024200092ED022AD1ED021AD2ED030A91ED031AC0
:1024300091ED044A03EEA20AD2ED043A92ED053A78
:10244000D1ED052A01EE820A92ED062AD1ED061A97
:1024500001EE200A92ED071AD1ED070A04EE230AD5
:10246000D2ED083A91ED084A02EE830AD2ED092A2C
:1024700091ED093A01EE820A92ED0A2AD1ED0A1A8B
:1024800000EE810A92ED0B1AD1ED0B0A04EE230A3D
:1024900091ED0C4AD1ED0D3A03EE220A92ED0C3A81
:1024A000D2ED0D2A01EE820A92ED0E2AD1ED0F1A1D
:1024B00000EE810A91ED0E1AD2ED0F0A4031403242
:1024C000103B04EE030A03EEA20A01EE020A01EE3B
:1024D000A00A102B9AD206E0F1EC010A5B1EB2ECC6
:1024E000011A00EE810A002BF6D1D0ED000A30EE81
:1024F000800A80ED000A7047000000009FED3C0A52
:1025000063E000BF92ED003A91ED004AD2ED012A5E
:10251000D1ED013A04EE030A92ED022AD1ED021A3E
:10252000D2ED030A91ED031A91ED044A03EEA20ADB
:10253000D2ED043A92ED053AD1ED052A01EE820A78
:1025400092ED062AD1ED061A01EE200A92ED071A45
:10255000D1ED070A04EE230AD2ED083A91ED084ABC
:1025600002EE830AD2ED092A91ED093A01EE820AC0
:1025700092ED0A2AD1ED0A1A00EE810A92ED0B1AA9
:10258000D1ED0B0A04EE230A91ED0C4AD1ED0D3A80
:1025900003EE220A92ED0C3AD2ED0D2A01EE820AE8
:1025A00092ED0E2AD1ED0F1A00EE810A91ED0E1A6E
:1025B000D2ED0F0A40314032103B04EE030A03EE25
:1025C000A20A01EE020A01EEA00A102B9AD206E03E
:1025D000F1EC010A5B1EB2EC011A00EE810A002B3D
:1025E000F6D1D0ED000A30EE800A80ED000A704787
:1025F0000000000030B528B1144C031F00202168F2
:102600000A4605E0084630BD9A4203D81046526893
:10261000002AF9D1002800D041680BD00468A3EB50
:102620000005A54204D11B681C440346046002E077
:10263000436000E023603AB11C68D51AA54203D17B
:1026400015682C441C6052685A6030BD5406002046
:1026500010B510EE104A4FF019406849002200EB07
:1026600044002DED028B884257D8DFED650A14F047
:10267000004F60EE200A14BF9FED621A9FED621AB0
:1026800071EE200AFDEEE00A10EE900A00EE900ACC
:10269000F8EEE00A9FED5D1A00EEC10A9FED5C1AAC
:1026A00000EEC10ADFED5B0A9FED5B1A00EE201A17
:1026B000DFED5A0A40EE010A9FED591A594B00F01E
:1026C000030100EE201A21EE000A7B4403EB810394
:1026D000D3ED000A544B7B4403EB810393ED001AC6
:1026E000524B41EE000A7B4403EB8101801091EDD7
:1026F000000A70EE800AEABB00EE100AB8EEC01ABB
:10270000DFED4B1A9FED4B0ABDEC028B01EE210A67
:10271000BCEEC00A20EE200A10BD4FF0FF40A043DF
:102720001BD04FF0CE40B0EB440F82BF9FED420A6A
:10273000BDEC028B10BD4148B0EB440F28BF012215
:1027400093D2022000F040F914F0004F15D0BDECF8
:10275000028BBDE8104000F01FB914F5000F02BF56
:102760009FED370ABDEC028B10BDBDEC028BBDE8BE
:10277000104000E007E000F003B9BDEC028BBDE8BB
:10278000104000F001B900EBD07359104FF07E52A9
:1027900002EBC15100EE101AA0EB630002EBC05037
:1027A00060EE200A00EE100A20EE208A18EE100AD1
:1027B00088B118EE100AB0F1FF4F15D018EE100ACC
:1027C000FFF7FCFD042808BF00F0E6F8B0EE480A69
:1027D000BDEC028B10BD022000F0F6F8BDEC028BC0
:1027E000BDE8104000F0D8B8022000F0EDF8BDECD4
:1027F000028BBDE8104000F0C7B800000000501E7A
:102800003BAAB840000000BF0000003F0070313E0E
:10281000F4FD053712BB2A3D12BB2A3EFFFFFF3EE7
:10282000FFFF7F3F9EC20000A2C2000072C20000F4
:102830000000004B00007E4E0000803F0000A0859D
:102840000000000010B510EE104A2DED028B4FF085
:102850007F40B0EEC08AB0EB440F55D318EE101A8B
:102860002C4A914220DD18EE101AB0EB410F1BD319
:1028700018EE101A284ADFED298A914207DD18EE7A
:10288000101AB0EB410F28BFB0EE680A35D238EE0F
:10289000080AFFF7DDFE70EE280A9FED211A81EE8F
:1028A000200A38EEC00A28E018EE101AB1F1665F6F
:1028B0000FDA18EE101AB0EB410F0AD318EE100A17
:1028C000FFF77CFD042808BF00F066F8B0EE480A68
:1028D00013E028EE080ADFED130ADFED131A9FED6F
:1028E000131A40EE210A60EE800A30EE010A80EEF3
:1028F000801AB0EE480A08EE010A002CB8BFB1EE0B
:10290000400ABDEC028B10BDBDEC028BBDE810404F
:1029100000F036B8549F0C3FB32C10410000803FAC
:1029200000000040C6E252BFB2117BBB1A2A1E4013
:102930002DE9F04782460F4C10480D4E0E4F001BFC
:102940004FF0000820F007054FF001090022114662
:10295000504602F02FFA002802D1306810B1002052
:10296000BDE8F0873C60C4E90058C6F80090EDE788
:1029700058060020042F00205406002000370020B5
:1029800030EE000A704700009FED020A20EE000AB8
:1029900070470000000000709FED020A20EE000A60
:1029A000704700000000001002E008C8121F08C1B4
:1029B000002AFAD170477047002001E001C1121FC0
:1029C000002AFBD1704700000149086070470000F1
:1029D0005C0600202DE9F0478246089D25F00100A5
:1029E000EC0803EB80069FED460A5AE051F8040B11
:1029F000D3ED001A00F0FF0C0CF00F084FEA1C1783
:102A000093ED014A02EB870CC0F30729DCED000AC5
:102A100002EB880C4FEA191700EEA10A9CED001A90
:102A200002EB870C93ED025ADCED000A09F00F0867
:102A300001EE040A02EB880C93ED033ADCED002A68
:102A4000C0F30747D3ED044A00EE850A4FEA171892
:102A500007F00F0702EB880C02EB87079CED002ABA
:102A600002EE830A000ED3ED053AD7ED001A4FEAC5
:102A7000101C00F00F0702EE240A02EB8C0093ED0D
:102A8000064A90ED001A02EB870093ED075A01EE1B
:102A9000A30AD0ED000A2033641E01EE040A00EE02
:102AA000850A002CA2D115E011F8010B93ED002A44
:102AB00093ED011A040900F00F0002EB840402EB0D
:102AC0008000D4ED001AD0ED000A083301EE820A2E
:102AD00000EE810AB342E7D3E80709D0087893ED06
:102AE000001A000902EB8000D0ED000A00EE810A16
:102AF000DAED000A30EE800A8AED000ABDE8F087C0
:102B000000000000F0B59FED3D0A059D03EB850434
:102B1000103C05F0030527E00E7893ED001A4F787E
:102B200002EB8606D3ED012AD6ED000A02EB8706FA
:102B300011F802CF00EE810A96ED001A02EB8C0725
:102B400091F801C093ED022AD7ED000A02EB8C0642
:102B500001EE220AD3ED031A891C103300EE820A1B
:102B6000D6ED000A00EEA10AA342D5D915B3012D76
:102B700004D0022D0CD0032D38D11CE0097893ED40
:102B8000001A02EB8101D1ED000A00EE810A2DE06E
:102B90000C78D3ED001A497802EB8404D3ED010AD6
:102BA00094ED001A02EB810101EE210A91ED001A69
:102BB00001EE200A1AE00C7893ED002A4D7802EB22
:102BC0008404897893ED011AD4ED001A02EB850490
:102BD00002EB810101EE820A94ED002AD3ED020A94
:102BE000D1ED001A02EE010A01EEA00AD0ED000AB2
:102BF00030EE800A80ED000AF0BD00000000000009
:102C000010B54169044688472069A04200D10020E0
:102C100010BD0120704700002DE9F04F00260F463F
:102C200099B00546B04634464DE000BFA868C4EBF5
:102C3000C4028946D0E9013C03EB82000B902D4889
:102C40000FAA02920CEBC40A51F8082F406A496897
:102C50000C91110A61F31F201C21834604A8FDF783
:102C600031FBD9F81800006801F0D6F80490D9F8C3
:102C70001800806805905FEA0A0009D0C0F800805B
:102C8000D9F80010416029B1498819B1012102E049
:102C9000404603E00021016001B900200690D9F808
:102CA00018001C2204A94068CDE9080B0C980A9072
:102CB0000298FDF7EEFA0B981C220FA9FDF7E9FA2E
:102CC000761CB6B2641C0DB1288800E00020A0423A
:102CD00005D9686818B150F824100029A6D11EB192
:102CE000A8684068386001E0C7F8008019B0304635
:102CF000BDE8F08FD8E70008704700002DE9F047E5
:102D000001EB82081E460C4605462DED028BDDE9DF
:102D10000AA93CE00120D4ED008A9FED208A06E05C
:102D200004EB8001401C91ED000AC8FE808AB0428D
:102D3000F6D300270FE000BF04EB870090ED000AF8
:102D400030EE680AFFF784FC30EE088A05EB870056
:102D50007F1C80ED000AB742EED3B5EEC08AF1EEDB
:102D600010FA10D0F7EE000A002080EE880A08E082
:102D700005EB8001401CD1ED000A60EE800AC1ED38
:102D8000000AB042F4D304EB8A0405EB89054445FC
:102D9000C0D3BDEC028BBDE8F0870000000000004E
:102DA0002DE9FF5F82B00021DDE90430020DDDF87E
:102DB00040B0034318D044F61050A2F2FF32424311
:102DC0001514119801281FD0A5EB0B00401C5FEAD9
:102DD000000A4FF000064E4FDFF83891B0465046DB
:102DE00015D5CAF1000413E0119801244AA3012863
:102DF00001D16FEA0B010298119AC0E90031C0E9D4
:102E0000024206B0BDE8F09FCBF10000DFE70446C8
:102E10000021404A491842EB0450CDE9001012E06D
:102E2000E00707D032463B4640464946FDF745FBA2
:102E30008046894632463B4610461946FDF73DFB23
:102E400006460F466410002CEAD1DDE90401DDE9F5
:102E50000023BAF1000F06DAFDF72FFB42464B467E
:102E6000FDF72BFB05E0FDF79AFB42464B46FDF7CD
:102E700096FB04460E460022284BFDF717FC03D8AC
:102E80004FF0FF30014607E00022254B2046314637
:102E9000FDF76CFAFDF7F2FB102409E0002C0ADBC9
:102EA0000A220023FDF7C4F9039B30321A55641E31
:102EB00050EA0102F2D1641C039AC4F111031444D4
:102EC000119A012A03D0012208430DD10AE00843D8
:102ED00004D000204FF0110B119072E7A3EB0B050B
:102EE0006D1E0DE05B4504DD4FF0000205F10105AC
:102EF00004E003DA4FF00002A5F10105002AECD04E
:102F000002981199C0E90231C0E9004579E7000053
:102F1000000014400000F03F300000000000F043CB
:102F20000000E03F2DE9F74F0C46C9491746A1F1D3
:102F300080002DED028BE0B0E58C1EAE826FB4F800
:102F40002480236807EB850AD4ED0F8A17930AEBD8
:102F5000850963680D932AABA06A1190A06804905C
:102F600083E8A40005FB08F2179B2D9703EB82036F
:102F70001A935BAB886883E8210405FB05F00D9B81
:102F8000CDF878A103EB80031C9303EB800303933C
:102F900003EB800015908B6909EB850086E8290218
:102FA000CDF88890049800EB850010901A9B03EBF5
:102FB00082000F9011988B6A00EB85000E9010989C
:102FC00000EB850005900F9800EB820016900E989C
:102FD00000EB850002901E98089009900598CDE9B5
:102FE000063500EB85004C90D1E91023886BCDE9C4
:102FF0004305CDE94523206A4590206A4690886CB8
:10300000D1E91421CDE94705CDE94921206B49904B
:10301000206B4A902AA829905BA834901FA83B9067
:1030200006A8429043A8539047A89FED8A8A00269D
:103030005A9083E007EB86004346834680ED008A82
:10304000629A1799FFF7DEF9E26958460D992B4607
:10305000FFF7D8F90498434600EB860090ED000A8C
:10306000119800EB860090ED001A206B00EB8600B3
:10307000D0ED000A0AEB860001EE200ADBED000A23
:1030800030EE200A8BED000A80ED008A629A8346BA
:103090001A99FFF7B7F9E26958461C992B46FFF7D2
:1030A000B1F91098434600EB860090ED000A0298B3
:1030B00000EB8600D0ED000A206B00EB860090ED5F
:1030C000001A09EB860000EE810ADBED000A30EE03
:1030D000200A8BED000A80ED008A629A83460F99E0
:1030E000FFF790F9E269584603992B46FFF78AF9F2
:1030F000179800EB880017900D9800EB85000D9055
:1031000005989BED000A00EB86021A9800EB8800F8
:103110001A900F9800EB88000F901C98D2ED000ACF
:1031200000EB85001C90039830EE200A00EB850030
:1031300080FE680A0390761C8BED000AAE42FFF415
:1031400079AFD4E9056323A92A460846B047D4E9F4
:1031500005632EA92A460846B047D4E9036335A97A
:103160002A460846B047002648E000BF0AEB860022
:103170004346D0ED001A07EB8600D0ED000A09EBBC
:10318000860090ED001A206B00EB860090ED000A9F
:1031900020EE210A00EE810A80ED000A1E9800EB65
:1031A0008600834680ED008A629A1699FFF72AF915
:1031B000E269584615992B46FFF724F94C98226B83
:1031C00000EB86010E98DBED001A00EB86031698E3
:1031D00091ED000A00EB88001690159800EB850031
:1031E000159002EB860093ED001AD0ED000A761CD4
:1031F00001EE200A30EE210A8BED000AAE42B5D373
:10320000D4E905633CA92A460846B047D4E90D63D2
:1032100054A92A464DA8B04700200EE01E99226A04
:1032200001EB800302EB8001D3ED000A91ED000A6F
:10323000401C20EE200A81ED000AA842EED3D4E91A
:103240000710C4E9070160B0BDEC028BBDE8FE8F3A
:10325000C4E800080000000070B5054648880C4628
:103260006988884202D9A2B1002070BD8AB10026C7
:103270000BE06168C6EBC6006A6801EB800102EBF7
:1032800080001C22FDF705F8761C6088B042F0D85B
:1032900001E060686860608868802088288001207C
:1032A00070BD000030B500B3F9B1F2B15268E2B1BF
:1032B0000F4C1368A34203D00129026013D014E01D
:1032C0000023121D07E000BF52F82350A54204D08E
:1032D00040F823505B1C8B42F6D38B4205D152F849
:1032E0002300A04201D1012030BD002030BD0000EC
:1032F000DECAFAA170B506000D4614461AD0CCB14C
:10330000104600F031FE00B16088A84212D10421BD
:10331000002309E0C3EBC302606801EB820280581E
:1033200020B146F823005B1CAB42F3D3AB4201D182
:10333000012070BD002070BD0349884201D10120E9
:103340007047002070470000DECAFAA12DE9FE4F49
:1033500004009246894603D0A08D20B1256B03E07E
:103360000020BDE8FE8F0025217B0020E082C943BC
:10337000A082880702D030221121DCE0B9F1000FD1
:1033800062D0002D60D02888C8B3D9F81800002674
:10339000D0F8008056E0A868006800EB06100190A5
:1033A00052D060B3C6EBC6000290012109EB800049
:1033B000009000F0E3FD0246DBF8180041688A4205
:1033C0001AD8009ADBF80C309269DF68D2F80CC08A
:1033D000674511D19F68D2F808C067450CD15B687A
:1033E0005268934208D1006800F006FD074658462F
:1033F00001F0CCFC874203D2182212219BE023E08B
:10340000DBF81800006800F007FD0299C00159F8C8
:103410002110B0EBC11F01D01922EEE700984068DF
:1034200090B100988069006880B14045414600D263
:1034300008465A468046DDE9001000F08FF806F194
:1034400001062DB1288804E01722D6E72122D4E70F
:103450000020B04206D9686820B150F826B0BBF110
:10346000000F98D1BAF1000F73D0A08D012806D9B2
:10347000256B0C3503D0288808B1002657E01822A8
:1034800058E0A868006800EB061B39D0BBF1000FBC
:1034900036D0C6EBC600019001210AEB80000090F7
:1034A00000F06CFDD9F8183059688842E7D8009AC6
:1034B000D9F80C009269C768D2F80CC06745DED114
:1034C0008768D2F808C06745D9D1406852689042F1
:1034D000D5D1186800F090FC0746484601F056FC2C
:1034E0008742CCD3D9F81800006800F095FC019908
:1034F000C0015AF82110B0EBC11F03D0192219E006
:10350000172217E0009840680028F9D000988069D9
:10351000006870B14045414600D208460099804697
:103520004A46584600F01AF806F101063DB12888CF
:1035300006E021221321204601F003F810E70020C5
:10354000B04206D9686820B150F82690B9F1000F52
:1035500097D14FF00100A4F8148002E770B50E4631
:1035600004461546104601F011FCA0600146B06902
:1035700000684843E06071686160726810442060D0
:10358000A8690268920007D4D0E90223D21A114434
:103590008160A9696068C86070BD2DE9F0410025AF
:1035A000064620E0B268816913680A6803EB0514D7
:1035B000920005D58968D4E9010201F057FD08E0C1
:1035C000D1E902236768D21A3A448A608069616847
:1035D000C16094E8070011446160814201D3E16851
:1035E000411A61606D1C0EB1308800E00020A842D5
:1035F00006D97068002803D050F825000028D1D1E2
:10360000BDE8F0812DE9F041002506462BE0B268C7
:1036100088691268036802EB05149A000FD5806868
:10362000D4E9011201F022FDD4E9010108446060EF
:103630002168884201D3E068081A606012E0D4E98A
:103640000020A36818446060904201D3E068101A1B
:1036500060608A69D2E90237DB1B1844906089698F
:103660006068C8606D1C0EB1308800E00020A84280
:1036700006D97068002803D050F825100029C6D15B
:10368000BDE8F0812DE9FF4F95B09B46894606467F
:1036900000250FE2252877D100242746F84A01218A
:1036A000059400E0044316F8013F203B01FA03F0C3
:1036B0001042F7D130782A2811D06FF02F033078DC
:1036C000A0F13002092A16D8059A44F0020402EB50
:1036D000820203EB42021044761C0590EFE759F892
:1036E000042B0592002A03DA504244F4005405905A
:1036F00044F00204761C30782E2816D116F8010FFB
:1037000044F004042A280DD06FF02F023078A0F185
:103710003003092B09D807EB870302EB4303C718D3
:10372000761CF3E759F8047B761C30786C280FD0B0
:1037300006DC4C2817D068280DD06A2814D104E084
:10374000742810D07A280FD10DE044F400140AE058
:1037500044F4801401E044F440147278824202D1AF
:1037600004F58014761C761C307866280BD013DCA8
:10377000582877D009DC002875D04528F6D046288F
:10378000F4D047281AD19DE118E0632835D0642889
:1037900079D0652812D195E1702873D008DC6728AC
:1037A000F1D069286FD06E280DD06F2806D1B5E012
:1037B00073282CD0752875D0782874D05A4617995C
:1037C00090476D1C75E1C4F30250022809D003280C
:1037D0000DD0D9F8001004280DD00D6009F10409AE
:1037E00067E1D9F80010EA17C1E90052F6E7D9F805
:1037F00000100D80F2E70D70F0E719F8041B8DF84A
:10380000001000208DF80100EA46012003E059F87D
:1038100004AB4FF0FF3061074FF0000102D40DE020
:1038200008F101018846B9420FDA8045F8DB1AF841
:1038300008100029F4D108E008F10101884681420E
:10384000FADB1AF808100029F6D105985B46A0EBC0
:10385000080721463846179A00F094FA284400EBEE
:10386000080507E04DE029E10DE01AF8010B5A4682
:1038700017999047B8F10108F7D25B4621463846C0
:10388000179A13E142E00A220092C4F302524FF069
:10389000000A022A08D059F804CB032A4FEAEC7137
:1038A0000AD00DE029E02AE009F1070121F0070222
:1038B000F2E802C1914609E00FFA8CFC4FEAEC7184
:1038C000042A03D14FFA8CFC4FEAEC71002907DA85
:1038D0000A460021DCF1000C61EB02012D2202E01E
:1038E000220504D52B228DF80420012203E0E207F3
:1038F00001D02022F7E7904659E00A2102E0102289
:103900000DE010214FF0000A00910BE010224FF063
:10391000000A44F004040827009203E008224FF054
:10392000000A0092C4F30252022A05D059F804CBCF
:103930000021032A08D009E009F1070121F007025C
:10394000F2E802C1914605E01FFA8CFC042A01D17D
:103950000CF0FF0C4FF00008220728D5702806D085
:10396000009B83F0100353EA0A0305D00EE04022C7
:103970008DF80420012208E05CEA010206D0302222
:103980008DF804208DF8050002229046009B83F0FC
:10399000080353EA0A030AD15CEA010201D1620773
:1039A00005D530228DF804204FF001087F1E5828DD
:1039B00004D034A003900EA802900DE036A0F9E7E1
:1039C00053466046009AFCF733FC84460398825CB9
:1039D0000298401E029002705CEA0100F0D1029849
:1039E00006A9081A00F1200A600702D524F48034E1
:1039F00000E00127574502DDA7EB0A0000E00020A8
:103A000000EB0A01009005984144401A0590E0033C
:103A100006D45B462146179A059800F0B3F9054491
:103A2000002706E001A85A46C05D179990476D1C13
:103A30007F1C4745F6DBE0030CD55B462146179A11
:103A4000059800F09FF9054404E030205A46179984
:103A500090476D1C0099481E00900029F5DC08E095
:103A6000029802995A460078491C0291179990478A
:103A70006D1CBAF10001AAF1010AF1DC65E1000058
:103A80000928010030313233343536373839616234
:103A900063646566000000003031323334353637F8
:103AA00038394142434445460000000000F058F9CF
:103AB0000544761C307800287FF4ECAD19B0284618
:103AC000BDE8F08F620700D4062709F1070222F053
:103AD000070CFCE80223E14603F000485FEA080C0B
:103AE00002D00FF2702C0DE05FEA045C02D50FF2F9
:103AF000682C07E05FEAC47C02D00FF2602C01E082
:103B0000AFF2700C4FF0FF3823F00043CDF850C0F7
:103B100065280CD006DC452809D046281DD047284A
:103B20003DD13DE0662818D067287ED138E00021DD
:103B3000112F01DB112000E0781CCDE9000106A95E
:103B40000EA8FFF72DF9DDE90F010E9A0391002170
:103B5000009207F1010A04914DE04FF000400097F8
:103B6000CDE9011006A90EA8FFF71AF9DDE90F0249
:103B700003920E9B11990022DDF80CA00093049291
:103B800011B9791C00EB010AB7EB0A0004D4C0F1AB
:103B9000FF3007F1010A0490AAEB0700019044E00E
:103BA000012F00DA01270021112F01DD112000E093
:103BB0003846CDE9000106A90EA8FFF7F1F8DDE9C6
:103BC0000F010E9A0391002104910092BA46210739
:103BD0000CD40399514500DA8A46BAF1010F05DD8C
:103BE000009AAAF10101515C302908D0B84202DAEA
:103BF00010F1040F06DA0121CDE9011015E0AAF158
:103C00000101E9E7002805DC049901440491AAEBCD
:103C1000000102E0411C514500DD8A460499401A2A
:103C2000401C01904FF000400290200704D40198FE
:103C3000504501DBCDF8048000208DF84F0002983C
:103C40000DF14F07B0F1004F25D02B200E900298B8
:103C50004FF0020800280CDA404202902D200E900E
:103C600007E00A210298FCF74CFB3031029007F87C
:103C7000011DB8F10001A8F10108F2DC029800284A
:103C8000EFD1791E0E980870307800F0200040F0D7
:103C9000450007F8020D12A8C01B00F10708149890
:103CA000007800B1012000EB0A01019801EBE071FE
:103CB00005984144401A401E0590E00306D45B4637
:103CC0002146179A059800F05DF80544149800788D
:103CD00018B15A46179990476D1CE00324D55B46EE
:103CE0002146179A059800F04DF805441CE0049809
:103CF000002807DBDDE90301884203DD0098405C12
:103D0000179901E0179930205A469047049805F119
:103D10000105401C04900198401E019004D12E2002
:103D20005A46179990476D1CBAF10001AAF1010A91
:103D3000DDDC05E017F8010B5A46179990476D1C1A
:103D4000B8F10001A8F10108F4DC5B462146179A9E
:103D50000598ABE62D0000002B00000020000000BD
:103D60002DE9F041044600251E461746880404D478
:103D700005E039462020B0476D1C641EF9D5284661
:103D8000BDE8F0812DE9F041044600251E4690462D
:103D9000C80301D5302700E02027880404D505E0BA
:103DA00041463846B0476D1C641EF9D52846BDE82B
:103DB000F0810A68531C0B601070704710B589B110
:103DC000C0F3C612C0F341545143C0F3434301F161
:103DD000070121F00700042B20FA04F004D0082B7F
:103DE00007D104E0002010BD00EB021001E000EB61
:103DF0000220C01DC00810BD59B1C0F3C613C0F3E6
:103E000041525943C91D21F00700D040C01DC008D0
:103E10007047002070470000C0F3434102294FF073
:103E2000400170B51CD03A4A20F07E430D019C1A27
:103E300093424FF400665FD029DC364A9342A3EBED
:103E4000020459D019DC402B57D0403BB3F58023F6
:103E50004CD0802B37D0AB424FD12E49C91F4CE0FC
:103E6000C0F3C051C0F3C612C90500F07F0341EA98
:103E7000C211194341F480213FE0A4F54074F93C9C
:103E80001FD00F2C35D0B44237D1234935E0234B16
:103E9000E21A9C421BD00BDC214AA2181DD0802ABA
:103EA00019D0AA4211D0A2F58062073A25D117E0B5
:103EB0000F2A18D0B2420CD01A4BDA421DD11A493F
:103EC0001BE01A4919E01A4917E01A4915E01A4986
:103ED00013E01A4911E01A490FE0194980390CE042
:103EE0001449C91D09E014490F3106E01049803911
:103EF00003E00E490F3100E0114600F0804300F06E
:103F000000520B431A4300F00060104370BD0000E4
:103F100040040600470404004010040000047E0032
:103F2000000482FF00F801FF4010820140080400F5
:103F3000C000040040048400400884004010840055
:103F4000C000840070B514460D46064600F00CF81B
:103F500040B17068C5EBC50110EB810002D0446030
:103F6000012070BD002070BD28B1416819B14088A2
:103F700008B101207047002070470000020010B512
:103F80002AD01068154BB3EBC01F03D0144BB3EB12
:103F9000C01F01D1012000E0002008429069406864
:103FA00002D01F3020F01F005369D9B2012900D080
:103FB00000211B0A07E0012907D0946954F8214029
:103FC0006043491C1AB11C4602E00124F8E70024B2
:103FD0008C42F0DC002800DC002010BD00600042B4
:103FE0000060000209A108B50968009148B1017894
:103FF0009DF80020914204D104226946FCF774F92F
:1040000008B1002008BD012008BD0000038404841D
:104010002DE9F041C66B0025416B04468163CEB1AA
:10402000D9B10120226CB0470CE00220226CB047CD
:10403000A06BFEF7E5FD0746226C0320A16BB0479D
:104040006D1CA763A16B0029EFD106E0FEF7D8FD38
:104050006D1CA063A06B0028F8D12846BDE8F08154
:1040600003460020596B002908D00A69401CCB6028
:104070008A4203D0002A01D01146F6E770472DE9A5
:10408000F041446B002594B1012600272079C00738
:1040900007D0216A204611B18847304600E03846F3
:1040A00005442069A04202D008B10446EEE7284644
:1040B000BDE8F0811CB500230522CDE90023024AAA
:1040C000012300F003F91CBDDC0300202DE9F043BF
:1040D0008FB016460F4605460021FFF7EBFF10F0A4
:1040E000FF0F80460BD1684600F032F820B1A7B12F
:1040F00000240DF10C090CE0286800F03DF80FB029
:10410000BDE8F08357F8242021464846FFF71AFF00
:10411000641CBDF80E00A042F4DC76B100246F46AA
:1041200007E000BF56F82420381D2146FFF70AFF9C
:10413000641CBDF80600A042F4DC2868694600F063
:104140001DF818B9286800F017F880464046D6E7F1
:104150001FB500280CD00749D1E90023CDE9002381
:10416000D1E90221CDE9022102A96A4600F034F822
:1041700004B010BD8051000800F002B92DE9F041F3
:104180000D46064600F00AF9041E0DD0294600F03F
:10419000DDFE07462946204600F0A6FE00EA070499
:1041A000304600F081F92040BDE8F08110B90248A6
:1041B000024A026000F05EB8DC0300200001C0A1EA
:1041C00010B90248024A026000F0C1B9DC030020C5
:1041D0000001C0A100F08BB910B570B169B162B136
:1041E000074C01230460D1E90041C0E90141D2E953
:1041F0000012C0E90312184610BD002010BD0000D7
:10420000DECAFAA110B518B1044A0168914200D083
:1042100000200446FCF73CFC204610BD0001C0A174
:1042200030B44AB140B139B1074C1368A34206D14A
:1042300030BC0C32FFF75EB830BC0020704730BC99
:104240001C32FFF72FB80000DECAFAA130B44AB121
:1042500040B139B1064C1368A34206D130BC121DDF
:10426000FFF748B830BC0020704730BCFFF71AB8E1
:10427000DECAFAA1F8B50E46FFF7C4FF04000AD063
:1042800000270097A08D00B1206B6946FEF7C4FCA3
:10429000050006D00BE01022114600F052F9002074
:1042A000F8BD18222046112100F04BF9009706B105
:1042B00035800098F8BD0000034810B54469FCF74C
:1042C000E7FB204610BD0000D8E700082DE9F04FBD
:1042D00089B04FF0000A9046064650465446DDE944
:1042E000122163F307009B46019262F30F200391B2
:1042F00061F317400546FCF74FFB1E4FF8B1FCF782
:10430000C7FB06B31C49C8F80010C6F8008000F0CF
:1043100065F9D0B1FFF7D0FF00228146C5F3072130
:10432000E8B200F045F90022054609F0FF00C9F3A4
:10433000072100F03DF9854209D07C680FE0F8695B
:1043400009B0BDE8F08F386AFAE73C6807E00BA0D7
:10435000006800906846FFF745FE10B9BC68C6F8D3
:1043600000A05846039A019900F022F9C8F84800C5
:104370002046E5E7D8E700080001C0A103840484D3
:1043800010B5FFF73FFF20B1BDE81040103000F03E
:104390001FB90148806910BDD8E700082DE9F04F2A
:1043A00091B00C46FFF72EFF050013D0B4B1206882
:1043B0003AA1FEF7C1FF06004FF0000B11D02068B4
:1043C0000190D4E90301CDE90401D4E90101CDE96B
:1043D000020144E0002011B0BDE8F08F112210214D
:1043E00059E0D4F804A001212046FFF7C7FDD4F816
:1043F00020908046012104F11C001090FFF7BEFDC3
:1044000028491422074606A8FBF743FFB8F1000F1E
:104410004FF0010002D0ADF81E0002E00024ADF81C
:104420001EB008941FB11099ADF8260002E00021DB
:10443000ADF826B0B9F1000F0A9102D10FB11322E5
:1044400006E0BAF1000F05D1B8F1000F02D0122238
:1044500010211FE0142206A901A8FBF71AFF86F01D
:10446000010202A9144605F11C00FEF7F5FE68B131
:1044700004A9224605F12400FEF7EEFE40B1032018
:10448000E8602846FFF7ECFD2846A4E7122200E08A
:1044900013221621284600F054F89BE7696E6974D0
:1044A0000000000030E8000870B5FFF7ABFE041E06
:1044B00008D0207B800706D410222046112100F06E
:1044C00040F8002070BD2046FFF7D9FDE06B60B1D9
:1044D000656B55B1D4E90F32002029469847286909
:1044E000A84202D008B10546F4E7012070BD70B5BE
:1044F00015460E46FFF786FE04462A463146FEF76D
:1045000025FF00281CD0A08D08B1266B00E00026F6
:10451000012802D9256B0C350DE000250BE0304653
:10452000FFF73BF82046FFF773FD2846FFF76AF8D0
:10453000E08A401CE082E08AA18A8842EFD380B200
:1045400070BD002802D0103000F04AB87047F8B5AE
:104550000E46FFF757FE040007D000270097A08DF6
:10456000012808D9206B0C3006E010221146FFF715
:10457000E8FF0020F8BD00206946FEF74DFB05006E
:1045800005D1182220461121FFF7DBFF009706B165
:1045900035800098F8BD016802460120090A04E050
:1045A0005368491E53F8213058430029F8D1704709
:1045B000000640EA014040EA0220704783698869AA
:1045C000834204D0D9689200C06800F04FBD7047A4
:1045D000016800220270026008467047012070479F
:1045E000037813F0FF0F01D00020704701700168BD
:1045F00062F31F2101600120704700002DE9F04F98
:104600002DED028B87B08069018809B1426800E016
:104610000022526832B109B1426800E000225268BB
:10462000156800E00025012902D942680C3200E03B
:104630000022526842B1012902D942680C3200E0DE
:1046400000225268146800E00024022902D942685E
:10465000183200E0002252683AB1022902D94268B9
:10466000183200E0002252681268022993460BD9E2
:10467000426812F1180F07D032F8183F012B03D906
:10468000526812B1526800E00022EE68E3684FF011
:10469000000A0492D6F80480D3F80490D3E90223E8
:1046A0005A430092DBF818301A68C2F3C616C2F3F8
:1046B0004157FE400329069602D94668243600E099
:1046C0000026766856B1032902D94068243000E0FC
:1046D00000204068006808B1866900E00026C2F347
:1046E0004340042801D008280ED1DF685EB1D6E926
:1046F0000001FFF763FBD6F80CA00246384651468E
:1047000000F0B4FC00E0BA460099A269AB6909FB6D
:1047100001F0DBF8141094689FED328A04EB8907EE
:10472000496804EB8000039199680291059052E07A
:10473000DBF8181004988E6810B18069856800E075
:104740000025BAF1000F35D00698042816D02EE0C7
:1047500015B1B5EC010A01E0B0EE480A8DED010A91
:10476000029B01A852463146CDF80080FEF732F98F
:1047700003989DED010A0644A4EC010ABC42E7D36C
:1047800022E015B1B5EC010A01E0B0EE480A8DED6A
:10479000010A029B01A852463146CDF80080FEF77F
:1047A000B1F903989DED010A0644A4EC010ABC424C
:1047B000E7D309E002992B46CDE90089324620462D
:1047C00000F012F804EB8904029807EB890700EB6C
:1047D0008800029005988442AAD307B0BDEC028BF2
:1047E000BDE8F08F000000002DE9F04F06469A4624
:1047F0008B4615462DED028B81B034469FED188A0D
:10480000DDE90C9800EB88070EE000BF8DED008A13
:104810004B465A4629466846FDF770FE9DED000A54
:1048200005EB8905A4EC010ABC42EFD3BAF1000FF5
:1048300011D000210DE000BF0AEB810206EB8100E0
:10484000D2ED000A90ED000A491C30EE200A80EDFE
:10485000000A4145F0D301B0BDEC028BBDE8F08FFA
:10486000000000002DE9F04F05468069ADB00188D9
:1048700009B1436800E00023012902D944680C34DF
:1048800000E00024022902D94268183200E0002228
:1048900052683AB1022902D94268183200E0002277
:1048A0005268126802292A920BD9426812F1180F35
:1048B00007D032F8186F012E03D9526812B152682E
:1048C00000E000222892022902D94268183200E052
:1048D000002252683AB1022902D94268183200E037
:1048E0000022526892680229259202D94268183241
:1048F00000E00022526842B1022902D94068183013
:1049000000E000204068C06800E0002059681F9067
:1049100009B1086800E0002024900CB1208800E074
:1049200000208000FEF704F807902498C068C06853
:104930001E900CB1208800E00020FDF7F9FF0A90DE
:104940002498D5F82CA0C1684FEA8A0049680891DC
:1049500000900CB1208800E000208000FDF7E8FF07
:1049600083460CB1208800E000208000FDF7E0FFC6
:104970008146A8690188022902D94268183200E0FC
:10498000002252684AB1022902D94268183200E076
:1049900000225268D2F810C001E04FF0000C02294A
:1049A00002D94268183200E00022526842B102295E
:1049B00002D94268183200E000225268576900E0CC
:1049C0000027022902D94268183200E0002252680A
:1049D0003AB1022902D94268183200E00022526836
:1049E0009269022902D94368183300E000235B680A
:1049F0003BB1022902D94368183300E000235B6809
:104A0000DB69022902D94668183600E0002676687C
:104A10003EB1022902D94668183600E000267668C1
:104A2000366ABCF1000F03D0DCF818C0DCF808C00F
:104A3000CDF8A4C017B1BF69BF6800E00027279771
:104A400012B19269926800E00022269213B19A692D
:104A5000926800E000220B9216B1B269926800E001
:104A600000220329964602D94268243200E000223F
:104A700052683AB1032902D94068243000E000208E
:104A800040680268002019E0079B43F820108969FC
:104A90008B684BF82030079951F82010C968C96815
:104AA000012901D9012100E000210A9B195409B113
:104AB000534600E0002349F82030401C0CB1218807
:104AC00000E00021814205D9616819B151F8201038
:104AD0000029D9D18A48CAEBCA010AEB4A03866E7B
:104AE000D0E91C70CDE92061CDE922702A98D2F876
:104AF00018806968D0F818C0C9432898D8F8088089
:104B000041F30061491C8669259882691F9887696D
:104B1000DCF808002C902591B66890681F90B86862
:104B200008EB8A072A9008EB8300289008EBCA005C
:104B3000069006D0009841464200E86900F096FAD7
:104B400011E0009ABEF10000414602D000F08EFA5A
:104B500002E0002000F0CCFA0B983946009A0028B9
:104B6000ECD100F0C5FA009A0020069900F0C0FAD6
:104B70002C98CDE90C062A980E90286B00B9614854
:104B80000F9029981090686B00B95E481190279893
:104B9000069ACDE912070898ADF85400ADF856A072
:104BA0001F9814921690E869CDE91708A86B00B910
:104BB0005448199026981A9095ED100A8DED1B0A0D
:104BC00095F83C00002803D01E9FA7F1010701E0E3
:104BD0004FF0000702D04FF0FF3001E04FF001002E
:104BE00095F83E101F90F1B11E994FF00000A1F111
:104BF000010111E059F820205BF8203002FB01F29E
:104C000003EB82034BF8203059F82020C2F1000357
:104C100049F8203000F101000CB1228801E04FF08A
:104C200000028242E6DC2498816908988A68784309
:104C30001F990F4402EB8000289A0CA9FEF772F925
:104C4000002611E059F8260068B15BF82610009A9A
:104C5000139800F00BFA59F826005BF8261001EBC8
:104C600080014BF82610761C0CB1208800E0002053
:104C7000B042E7DC1E98874201DA002FD3DA002623
:104C800019E000BF59F82600A0B90CB1208800E057
:104C90000020401EB04207D195F83D0020B15BF8DE
:104CA00026104046009A03E05BF82610009A1398FD
:104CB00000F0DCF9761C0CB1208800E00020B04246
:104CC000E0DC259860B1EC6954B1009A2146404679
:104CD00000F0CCF9009A04EB8A01139800F0C6F9B1
:104CE0004846FDF787FC5846FDF784FC0A98FDF717
:104CF00081FC0798FDF77EFC2DB0BDE8F08F000029
:104D0000C4E80008BD4500082DE9FC418069018820
:104D100009B1426800E00022526832B109B142682C
:104D200000E000225268146800E00024012902D942
:104D300042680C3200E00022526842B1012902D9D7
:104D400040680C3000E000204068056800E0002565
:104D5000E168E8684E68476804F10800FFF71BFC4B
:104D6000CDE900670246A069AB698168986833465F
:104D7000FDF7C4FFBDE8FC8138B504468DF800009E
:104D800069460320ABBE204638BD000030B5D0E9EF
:104D90000551C368064CD868EB6809685843214040
:104DA000A1F58022C03A01D1C01DC00830BD00006D
:104DB000FFFF7F012DE9F0410B3020F00706104D79
:104DC00019E02068B04215D3B0420AD9871B201DD4
:104DD000D4F80480FBF75DFAA019C0E900782860D8
:104DE00004E060682860201DFBF753FA201D266050
:104DF000BDE8F081251D2C68002CE2D10020F7E7EA
:104E00005406002008B5FCF7C9F8FCF7E1FE2C4871
:104E1000016841F001010160016801F001010091A8
:104E2000016841F002010160016801F00201009196
:104E3000016841F08001016000680024214A0121DD
:104E400000F08000009020480260047144714461C9
:104E500084610162FBF7C4FE08B172B6FEE7FCF79D
:104E600085FEFBF7E7FC4FF4447518482946FBF72D
:104E700029FA1548012216492430FCF7E3FD15A054
:104E8000FDF766FA114EEF1CA846114D6878002810
:104E9000FCD06888B8420BD10B49701C4246AC313B
:104EA000FCF783FE09492839A1F54460FBF7FCFCB7
:104EB00006484146FBF706FA6C706C80E6E7000096
:104EC0003038024000300240600600207413002099
:104ED0000000002041492069732072756E6E696E72
:104EE00067210D0A000000002DE9F0410446164834
:104EF0000A460121FFF794F9F0B1134800F1680266
:104F0000A2F11004006802F11005906002F1200681
:104F1000D06000F54461A16000F56763E16002F1D3
:104F20003007AB6000F12802EB60B060F060012058
:104F3000BA60FA60BDE8F081132220463021FFF705
:104F400000FB0020F6E700002403002070B50446B3
:104F500027480A460121FFF779F9E8B3244941F6C9
:104F6000F014091D086840F080420A60081F01F132
:104F7000100200688860C8602031136843F08045E3
:104F800000F5C85393601560D36003190A688B60FD
:104F900042F080440C6001F11002CB6041F63033E6
:104FA00003441168936041F08044146002F11001E1
:104FB000D36047F2B02370320C6803448B6044F036
:104FC00080450D60CB6047F2D82411682044906082
:104FD00041F08041116000E002E0D060012070BD2E
:104FE000122220463021FFF7ACFA002070BD0000ED
:104FF0002803002070B56FF003032DED028BB7EE90
:10500000008A80698E69816803EB8200B4680D189C
:1050100004440DE094ED000AB1EE400AFDF718FBE0
:1050200030EE080A241FC8EE000AC5ED000A2D1F45
:10503000B068A042EED9BDEC028B70BD70B580693E
:105040006FF003038E69816803EB8200B4680D186A
:10505000044407E094ED000AFDF7F4FB241F85EDFE
:10506000000A2D1FB068A042F4D970BDF0B5884287
:105070000ED0002A0CD08318814210D999420ED24A
:10508000114403E013F8012D01F8012D8342F9D8F2
:10509000F0BD00BF10F8013B521E01F8013B8B0729
:1050A00001D0002AF6D117090AE00668456884682D
:1050B000C36810300E604D608C60CB6010317F1E75
:1050C000002FF2D1C2F3810305E000BF50F8044B7A
:1050D0005B1E41F8044B002BF8D102F0030204E000
:1050E00010F8013B521E01F8013B002AF8D1F0BD37
:1050F0004FF6FF7310B503EA0024C3B21C4344EA21
:10510000034343EA006302E0521E01F8010B8C07DF
:1051100001D0002AF8D1140905E00B604B608B60C8
:10512000CB601031641E002CF7D1C2F3810402E081
:10513000641E41F8043B002CFAD102F0030202E0A5
:10514000521E01F8010B002AFAD110BD741700207D
:105150000000000000000000010203040607080927
:10516000000000000102030404000000B001002060
:1051700004000000F401002004000000540200209C
:105180000000010018060020000001003406002085
:1051900001000000301700000100000001000000C5
:1051A00040040400000000000000000000000000B7
:1051B00030170000010400000000000001000000A2
:1051C000D8950000010000000100000040040440E8
:1051D000000000000000000000000000D895000062
:1051E00001040000000000000000000000000000BA
:1051F00000000000000000000000000000000000AF
:10520000CB1A353FFCF6C4BEE72686BE23936E3E1E
:10521000A3A74EBE14EAA1BC3510663E8BCD15BEC9
:10522000448574BE20CCCFBE268DC0BD86CD073E42
:105230003A554A3D9AEDC5BECAA9AA3EA17739BDE5
:1052400051D68E3E81A1C73D4A88A2BEC4C04E3E03
:1052500050D79EBDE9F2143F2BEFA7BED0B2803FDE
:10526000CCA7FB3E89FA38BF544DA43D7BCE2A3FE4
:10527000DA4E9D3E1E0A0E3F4FF94B3E7E851CBF07
:10528000630E2EBE2C03213E121C7A3E13D8B13E73
:10529000B4BA3A3F344F72BF5360193FEAC0CD3DB4
:1052A000E8E124BEB1FC07BDF80CB83E91A682BE71
:1052B0000A1103BF22E6153E50A57039DD4EA1BD8F
:1052C0005F78573EDE68CDBE8074BFBEFB9AB63EA7
:1052D000741D143F3239B4BEB0C2E43D75FE233EA6
:1052E000FD48063D412AFCBDAA9031BF98DE263E0E
:1052F0005ECDCFBDD3506A3DDD29443D163924BE75
:105300003B03C7BEF55D88BE14D59BBE60AF7EBEB5
:1053100045586B3E8A196BBD38F9B83E77DE8BBDB8
:10532000D3C97F3E96C61BBF97DB38BD888FD1BDE2
:105330009C2EE4BE1A135BBE145569BDB0768FBEB9
:105340001305A1BEB2235F3E8A1ADFBE918A1E3FBB
:10535000703839BDD7F49CBD2A2B1FBD9FA8173EBE
:10536000781CB23E0DAE813E8A5124BEAB9996BEEA
:105370001CE6FBBE6617353F0A9A1A3ECD4F323CFB
:105380007294AC3C58EB2BBF7D3E023F78E17C3EF3
:105390006B4CA53EE99FAD3EE644F33EA05C0C3F5E
:1053A00026BF89BEC97FBCBDFC52F2BD3A3B57BC8B
:1053B00072DCD3BD8C4174BE9506003FB3C9153E67
:1053C000FBE46ABDFBB9C6BEB4D6113E7C358D3E4A
:1053D0002F74D2BE0F83373E0130933ED7D4A1BE87
:1053E0003A5B1ABF08E848BE19B6313E7501E5BD03
:1053F000F167B2BE5777083FBD60F8BE98C953BE8B
:10540000DFDA79BBC999B3BEB6AC84BEB71B6B3EBD
:10541000EF30EC3E1DDDC83DDB220D3E8DBB733D04
:1054200077B221BE4F35423E2E06F6BE2E2E663E88
:10543000D85539BE0D7DCABE1DDB11BE9B41723EE3
:10544000968C9FBEC1937A3EFE57F53DC6C3433E40
:105450005051FDBD3F79B23DD17D9CBD2DC0873EF1
:105460007571E03EF23BB73DD8D751BFAAA7CBBE7E
:10547000C9DDFA3EEB01DDBE1FBA27BE999C553F40
:1054800017F4653E997AE9BE2C4EC13A45C2E4BD97
:1054900064859DBEEDECF2BC04A39CBD07F10DBF7D
:1054A0006A588A3D60F8313E4E4F0ABFDC98BB3ED9
:1054B00007A81CBD26BB09BFF08F56BE3C8603BFA4
:1054C00060DCE0BDC77D1DBEA2B4A3BC08D876BE1B
:1054D00087F992BEFE26513E874998BEB6312BBF52
:1054E000920507BD8EF2A4BEC889EBBD6475A4BE4B
:1054F000910651BE8FF5F53D02CA193D31E182BEDC
:105500007C8BA83E0BB27E3E019A9BBE63A670BE0A
:105510004E38E3BC73815A3EAF7E90BE6179673EE0
:105520003A03EA3E7E3E943EBA9BCCBE77BEA53E91
:10553000558A413FBB7724BF63A18C3BC2C2DF3C8D
:10554000CB6AD2BED7B3263E380006BEBACA3ABE30
:10555000BDB03BBE303E883E31C544BE657100BF24
:10556000270CA2BE4F198ABDF056E3BD04C4593EB4
:10557000D4295C3EF1274DBD3ACD313F80ABAABE68
:10558000E1528A3E5FD5A43EE177FEBECC6F903EED
:10559000C337E73EAA66B6BECF7CFEBCA5700ABF85
:1055A000306E2DBDBCF686BD0B41903E4E229A3E1C
:1055B00089AAAEBE8EA5B03E7517FBBEA134983E3B
:1055C000DA36DC3ED4CDC63DBBAE34BE8B3E063EA5
:1055D000FDCCB1BED551D2BE80DCB13E2BDE31BF99
:1055E0008BFF87BEC125BDBD5A5EB4BDB7DE1A3F75
:1055F000FA0D36BE5579CE3D530ECDBEEB610DBFD3
:10560000B36170BD49F5023F73E5B5BDF4759F3DCB
:1056100032611D3EAFAEFD3DDD4E1DBEDCB7503DDF
:10562000551319BF44FFBFBD5200063F0A7E65BE39
:105630004EEF59BF7260793EE4658BBE7EB3E8BD24
:10564000B1FB46BD9A8EC63E7F7B0DBD88FEFDBD7B
:10565000ECBEB7BD893614BF1ED2883D756179BED8
:10566000D5C029BE3C8AA2BEA81056BEF1DDAF3E11
:105670007E12A3BE9E83E43E026E36BEB73EC5BD1B
:1056800039C7F0BD538EC03EBA460ABF18A9C0BD87
:10569000C246323EE66F72BE68CA303F4F7B7FBE65
:1056A00058F0C1BEEE895DBECC42AF3D51072E3EE3
:1056B00054E3093DF81542BE2C0EDEBEB1F7353E6F
:1056C000E297B0BE8C7C0C3E763C273FAE7698BE0F
:1056D000433A783FA9189F3E83E73ABFF876CD3E1C
:1056E000B668F23E5E83733E9B4CB53E7797423E72
:1056F000A40A8E3E342F89BEA2F9B4BC78D9F5BD78
:10570000C3A9143F80B3A1BEE21D8DBF5BEDA63ED1
:1057100026BD20BE8541CBBE075A113F196ABABECD
:1057200055D5FCBEF776ECBDA35184BE0A56353F75
:105730006178523E489C3DBD2A4AD8BE6BD029BFF5
:10574000173B643D19F5FFBE5D9B953D6CBC983ED3
:10575000DDA061BFCEC7A83ECB68353E3E7456BEC5
:105760005C441CBF863850BD374D19BE0625923D9E
:1057700038DB7CBEFD32223E7A280D3F5446AB3EDC
:10578000BFBABA3EAC2914BE56FCAE3CC935EC3C9F
:10579000357F20BEF14BF1B98BDF6C3E864F3F3E2B
:1057A00013146ABEEC6CF3BCC7E52BBF4EC631BE0A
:1057B000941308BEAF05153F4361C73EB60182BDD5
:1057C00054AA97BEEF04913EE47F01BE022168BE59
:1057D0004B593FBFCEC83F3E99C36C3E22367F3EF9
:1057E00043F5D43E2C5B683DF9145BBED528BFBDA4
:1057F000A860863ECE35DC3DBB4D0B3FB313323E39
:1058000059293E3E5DB283BEAF25573D68662B3FAA
:10581000D0EB723E8A07553E4F3F163FC2C8E63E68
:105820005705903E1CAC43BF15DB843EE3F7463E74
:105830003CF679BE20D740BEE31D313FADF196BFA7
:1058400058302CBF9DB7883EB363F7BD7E11E3BED1
:10585000DE86723ECB8EB5BCD398DBBEB346C83E67
:10586000805C3ABD8C25DB3D965FD73E2CE7ABBD17
:1058700057D36EBE20E88C3E27B45C3D06F55BBC7A
:10588000D8DEA93D509CC1BDE6400E3F39B4AEBE46
:10589000A22F8DBE252FB73DB4DFCE3D77BD95BE7F
:1058A0005A89CA3E60A870BE0685DCBD4B1DDA3E33
:1058B000050806BD73A2283DC401033E2629A6BEE5
:1058C00015A09DBE44E4AEBE09818FBEC3AC5EBED2
:1058D00007F0B1BEE403F3BE7F62AD3E4F401DBF93
:1058E000C717B6BDCB1517BD0F25293EDBEC79BE1A
:1058F000EB70CABDF0B7F33E808BA23D1012053DA0
:105900006F86B1BE9DEFD83CECC801BE61EBC73ECF
:10591000D7342A3E035249BE873A9B3DD1EB0A3E1B
:10592000C4073C3FB25F9EBE35B7C9BD333B5B3D4C
:105930008C458EBD374B94BEE4D4FDBEAAB23C3D2F
:10594000F5AA9B3E92C01DBED2D2123E1115753EE5
:10595000B41AB73EEB3D55BEF72F29BE760B5BBEA2
:105960004541B43EED21D43DDA5C46BE06F883BD28
:105970008349CB3D295C2F3E08D3EA3D830D7F3E12
:10598000178CACBC7EEDEF3D2A6AD8BE137E483E34
:10599000509B6C3E3D301DBF0846FD3D2DA53A3E57
:1059A0000EE1963EC18F8E3E525958BE697613BCA9
:1059B0006C5E4CBE140EB73E7214D9BDDCD28C3D69
:1059C0001EDE69BBB7CA34BE8F83E83EA43CB83D37
:1059D000DE62E9BEAF94ADBDA7DB9C3E2AAC8A3E39
:1059E0006183C83EEABDA1BCF54671BE2043333F8A
:1059F000FB54243F9C15913EE74416BE009F103E89
:105A000036EE6D3E31A2983D297636BE577E94BD66
:105A1000231955BE2E68EEBEFDEAD43E69BD4FBDCA
:105A2000082E4ABD5501093EED0685BCD31801BFBD
:105A3000255859BE25A3013E339A6B3D308294BD53
:105A4000670C0F3E13DBC13DB256E73D63C0743EA9
:105A50005D9B89BD4269B93DB185233D02E8F0BD3A
:105A6000B343123E4B27A63EBE8972BDBA83DE3DCC
:105A7000FB09843EFFAFA23DAA89D8BD5F851FBE4A
:105A800046F2243EC083553D612873BDD05EA43DDF
:105A9000AB77C2BE691EDF3E7741DBBC62E0EEBC85
:105AA000FC69603D5050793DD759723E8B9559BC89
:105AB0004EB043BED5538A3E3700F33D964F4F3D1F
:105AC0005ED14C3EA6FE8EBD2EDD603E5AD1FFBD9E
:105AD000505CC03DE00F68BD251A6CBC036E76BEFD
